:020000040800F2
:1000000090040020010100080716000851100008A4
:1000100005160008B107000893160008000000004C
:100020000000000000000000000000000B160008A7
:10003000B307000800000000091600080D160008AC
:100040001B0100081B0100081B0100081B01000820
:100050001B0100081B0100081B0100081B01000810
:100060001B0100081B0100081B0100081B01000800
:100070001B0100081B0100081B0100081B010008F0
:100080001B0100081B0100081B0100081B010008E0
:100090001B0100081B0100081B0100081B010008D0
:1000A0001B0100081B0100081B0100081B010008C0
:1000B0001B0100081B0100081B0100081B010008B0
:1000C0001B0100081B0100081B0100081B010008A0
:1000D0001B0100081B0100081B0100081B01000890
:1000E0001B0100081B0100081B010008DFF80CD0F1
:1000F00000F0CEFA00480047D92000089004002004
:100100000648804706480047FEE7FEE7FEE7FEE7B1
:10011000FEE7FEE7FEE7FEE7FEE7FEE791160008D2
:10012000ED000008202A04DB203A21FA02F0002129
:10013000704721FA02F3D040C2F1200291400843F7
:1001400019467047D2B201E000F8012B491EFBD2DC
:1001500070470022F6E710B513460A4604461946D2
:10016000FFF7F0FF204610BD421C10F8011B0029CC
:10017000FBD1801A704730B480EA010202F00045DA
:1001800030F0004221F0004013D090B1C30DD40DE7
:10019000C2F31601C0F31600E41A41F4000140F462
:1001A00000027D34914201D3641C00E04900002C20
:1001B00002DA30BC002070474FF400000023914267
:1001C00001D3891A034340084FEA4101F7D151B1E5
:1001D000914202D14FF0004105E002D24FF00101FF
:1001E00001E06FF0010103EBC450284430BC00F083
:1001F0005FB896230022114600F063B800F0004279
:1002000030F000400AD0C10D01F56071C0F3160056
:1002100042EA0151C20840071143704700200146DD
:10022000704730B50B46014600202022012409E02A
:1002300021FA02F59D4205D303FA02F5491B04FA9F
:1002400002F52844151EA2F10102F1DC30BD2DE9B2
:10025000F05F0546002092469B468846064681464A
:1002600040241BE02846414647462246FFF75AFFF6
:1002700053465A46C01A914110D311461846224699
:1002800000F018FA2D1A67EB01084F4622460120AC
:10029000002100F00FFA17EB00094E41201EA4F1D7
:1002A0000104DFDC484631462A464346BDE8F09F5C
:1002B0000029A8BF7047401C490008BF20F001007A
:1002C000704710B4B0FA80FC00FA0CF050EA010458
:1002D00004BF10BC704749B1CCF1200421FA04F4EA
:1002E00011FA0CF118BF012121430843A3EB0C01C3
:1002F000CB1D4FEA00614FEA102042BF002010BC26
:10030000704700EBC35010440029A4BF10BC7047D5
:10031000401C490008BF20F0010010BC70472DE9C7
:10032000FE4F804681EA0300C00F0C46009021F08A
:10033000004123F00045B8EB0200A94105D2404638
:10034000214690461C460B46024623F000401043CF
:1003500047D0270DC7F30A00C3F30A510290401A91
:10036000019040286BDAC3F3130040F4801B00981F
:10037000924620B10023D2EB030A63EB0B0B0198EA
:100380005946C0F14002504600F094F906460D4629
:1003900050465946019A00F09CF910EB0800614163
:1003A000002487EA115284EAE7731A4340D0009A86
:1003B00062B3019A012A4FEA075215DC001B61EB78
:1003C00002014FF0004202EA0752CDE90042001C50
:1003D00041F5801132462B4600F09CF903B0BDE890
:1003E000F08F40462146F9E7001B61EB0201001C3B
:1003F00041F5801300185B412018A2F5001747EB68
:10040000030140EAD570B6196D4111E06D084FEA5D
:10041000360645EAC0754FEA0752001B61EB020140
:10042000001C41F5801149084FEA30000019514184
:1004300032462B4603B0BDE8F04F00F05CB900989F
:10044000012240000023D0EB020263EBE07300982E
:1004500021464FEAE074B8EB000061EB0401E9E7E4
:1004600083F000435BE781F0004158E72DE9FE4F40
:1004700081EA030404F0004421F0004100944FF0AD
:10048000000B23F0004350EA01045ED052EA03045B
:100490005BD0C3F30A54C1F30A552C44A4F2F334DD
:1004A0000194A0FB0254C1F3130141F48011C3F382
:1004B000130343F4801301FB024400FB034E840A40
:1004C000970A44EA815447EA8357A4FB07680295D8
:1004D0008D0A05FB07854FEA932C04FB0C54270576
:1004E000029D4FEA065847EA1637B5EB08056EEB52
:1004F000070C870E920E47EA811742EA8312A7FB88
:100500000201B6EB0B0164EB00042B0D43EA0C3344
:100510005E1844EB1C50DA465146E7FB0201C5F376
:1005200013044FEA0B3343EA14534FEA0432019C9D
:1005300043EA0603A4F10C040294009CCDE900B444
:1005400000F0E8F803B0BDE8F08F00200146F9E7BD
:100550002DE9F04D81EA030404F0004B21F0004541
:1005600014464FF0000A23F0004150EA050220D063
:1005700054EA01021DD0C5F30A570246C5F313031E
:10058000C1F31300C1F30A5640F4801543F48013FD
:10059000A7EB0608101BD64608F2FD3873EB0500E2
:1005A00002D308F1010801E092185B41B8F1000F95
:1005B00003DA00200146BDE8F08D00204FF48011E1
:1005C000064684460EE0171B73EB050705D3121B86
:1005D00063EB050306434CEA010C49084FEA30007F
:1005E00092185B4150EA0107EDD152EA030012D0A4
:1005F00082EA040083EA0501084305D0101BAB41E1
:1006000006D20122002306E000224FF0004302E060
:100610006FF0010253101AEB06004CEB085110EB7F
:100620000A0041EB0B01BDE8F04D00F064B8C1F3E6
:100630000A52C1F3130140F2FF3341F480119A4290
:1006400002DA00200146704740F233439A42A2F298
:10065000334202DC5242FFF765BD00F02BB80000C8
:1006600030B5041E71F1000404DB4FF00044404239
:1006700064EB0101141E73F1000405DB1C464FF00E
:100680000043524263EB0403994208BF904230BDDD
:10069000064C074D06E0E06840F0010394E80700CF
:1006A00098471034AC42F6D3FFF724FDEC25000840
:1006B0000C260008202A04DB203A00FA02F1002070
:1006C00070479140C2F1200320FA03F31943904090
:1006D0007047202A06DBCB17203A41FA02F043EAA2
:1006E000E07306E041FA02F3D040C2F120029140EB
:1006F00008431946704710B5141E73F1000408DA58
:10070000401C41F1000192185B411A4301D120F0D5
:10071000010010BD2DE9F04D92469B4611B1B1FA92
:1007200081F202E0B0FA80F220329046FFF7C2FF79
:1007300004460F4640EA0A0041EA0B0153465A4676
:10074000084313D0114653EA010019D0C8F1400202
:100750005046FFF7E7FC05460E46504659464246CE
:10076000FFF7A8FF084305D0012004E020463946E2
:10077000BDE8F08D0020054346EAE0762C43374380
:100780000A986305E40AA0EB08000022FD0A44EA87
:1007900047540A3002D500200146E9E70105101947
:1007A0006941DDE9084500196941BDE8F04DA2E75E
:1007B000FEE770472DE9F84FDFF8B891002409F102
:1007C000040A0AF1040B23460F270BF1040EC9E0BB
:1007D0000125A5402A40AA427DD1674ED1F804C028
:1007E000ACEB0608B44532D014DCBCF1030F3AD0B0
:1007F00009DCBCF1000F2AD0BCF1010F1CD0BCF108
:10080000020F31D11DE0BCF1110F17D0BCF1120F56
:100810002AD119E0B8F5881F19D006DCB8F5803F59
:1008200015D0B8F5801F1FD111E0B8F5001F0ED00C
:10083000B8F5041F18D10AE0CB6815E0CB681B1D82
:1008400012E0CB6808330FE0CB680C330CE08B6808
:100850002BB1012B4FF0080303D0456104E00423C2
:1008600002E0056100E00023FF2A01D8064601E00E
:1008700000F104064FEA840501D9A5F12005D6F858
:10088000008007FA05FC28EA0C0803FA05F548EA97
:100890000508C6F800804D68ED0062D5374DAE6999
:1008A00046F00106AE61AD6924F0030605F00105CE
:1008B0000095334D06EB050CDCF80850A607360F03
:1008C00007FA06F825EA0805DFF8B880404503D1A5
:1008D0004FF0000817E044E0DFF8AC80404502D15B
:1008E0004FF001080FE0DFF8A480404502D14FF03F
:1008F000020808E0DFF89880404502D14FF0030875
:1009000001E04FF0040808FA06F848EA0508CCF8B8
:1009100008804D68D9F80060ED034D4601D51643B7
:1009200000E096432E604D68DAF80060AD0355464E
:1009300001D5164300E096432E604D68DBF8006059
:10094000ED025D4601D5164300E096432E604D68EA
:10095000DEF80060AD02754601D5164300E096430F
:100960002E60641C0D682A46E5407FF431AFBDE877
:10097000F88F000000040140000011100010024038
:100980000000014000080140000C0140001001403F
:1009900000140140014880687047000008000020F2
:1009A00070B5040025D094F83D00002520B984F8E6
:1009B0003C50204600F070FA242084F83D00206866
:1009C000016821F0010101602068016841F40041E3
:1009D00001602068016821F40041016000F014FB0F
:1009E0004D4A6168914201D84C4900E04C49884227
:1009F00001D2012070BD4B492368B0FBF1F15E6864
:100A000026F03F060E435E606368934206D94FF4BA
:100A1000967359434FF47A73B1FBF3F12368491C81
:100A20001E6A26F03F06314319626168914210D870
:100A30004900401EB0FBF1F2521CC2F30B02042A23
:100A400001D2042022E0B0FBF1F0401CC0F30B0007
:100A50001CE0A268F2B301EBC10303EB0116431ED5
:100A6000B3FBF6F35B1C43F480431B0549D092B300
:100A700001EBC10202EB0111401EB0FBF1F0401C82
:100A8000C0F30B0040F4804040F400402168CA6984
:100A90004CF6FF739A431043C861D4E90710014331
:100AA0002068026822F0C00211430160D4E903010A
:100AB00001432068826848F2FF339A431143816002
:100AC000D4E9050108432168CA6822F0FF021043F7
:100AD000C86001E00EE016E02068016841F0010105
:100AE00001602564202084F83D00256384F83E5091
:100AF000002070BD01EB4106431EB3FBF6F35B1C07
:100B0000B3E70120C2E701EB4101401EB0FBF1F069
:100B1000401CC0F30B00B7E7A086010080841E00D4
:100B200000093D0040420F002DE9F84F0025DDF897
:100B30002890984617468A4604460095FFF72AFFF4
:100B4000064694F83D0020287AD1192301228349D2
:100B50002046009600F07EFB0028F5D194F83C007A
:100B600001286DD0012084F83C0020680168C90785
:100B700003D1016841F0010101602068016821F49E
:100B800000610160222084F83D00102084F83E00BE
:100B900025646762A4F82A80608D20857048E06231
:100BA00033464A465146204600F06AFA00287DD175
:100BB000208DDFF8B081202768B1012814D00228E9
:100BC000206801681ED041F480610160206841699D
:100BD00080690090B5E020684169816900910168F1
:100BE00041F400710160ACE02068016821F480618B
:100BF000016072B62068416981690091016841F421
:100C000000710AE041F40061016072B62068416938
:100C100081690091016821F48061016062B690E011
:100C2000032868D801280CD002284B464FF0000258
:100C30004146204600960FD000F00CFBB0BB10E000
:100C40008AE032464946204600F083FB70BB2068AC
:100C50000069616A08706BE000F0FCFA30BB72B6A4
:100C600034E02068016821F48061016072B6206878
:100C70000069616A0870606A401C6062208D401ED5
:100C80002085608D401E6085374846F2A8110068B7
:100C9000B0FBF1F0C0EBC00000EB80000090401E04
:100CA000009008D020684069C04300E029E0400778
:100CB0000CD50098F3E744F8305F6773A57320699B
:100CC00040F02000206162B625731AE020680168B8
:100CD00041F40071016020680069616A0870606A0F
:100CE000401C6062218D491E2185618D491E6185F0
:100CF00062B621681AE032464946204600F029FBD8
:100D000010B10120BDE8F88F20680069616A0870A1
:100D1000606A401C6062218D491E2185618D491EDB
:100D2000618521684A69D24352070AD40969017072
:100D3000606A401C6062208D401E2085608D401ED0
:100D40006085208D00287FF46BAF84F83D7084F8B7
:100D50003E5084F83C50D5E70220D3E70200100053
:100D60000000FFFF04000100140000202DE9F84FEF
:100D70001F4690468A460446DDF82890FFF70AFE93
:100D8000054694F83D0020287FD1192301224049CF
:100D90002046009500F05EFA002876D194F83C00D9
:100DA000012872D0012084F83C0020680168C9073E
:100DB00003D1016841F0010101602068016821F45C
:100DC00000610160212084F83D00102084F83E007D
:100DD00000262664C4F824806785608D20852D4810
:100DE000E0622B464A465146204600F0BFF990B9D2
:100DF000206841698069009036E02A4649462046CD
:100E000000F0DAFA50B1206C042804D1206801689F
:100E100041F4007101600120BDE8F88F606A21682B
:100E200000780861606A401C6062618D491E6185BE
:100E3000218D491E89B2218522685369DB435B07F6
:100E40000BD451B100781061606A401C6062608D03
:100E5000401E6085208D401E20852A46494620463A
:100E600000F0D2F90028CED1208D0028C5D154F849
:100E70003D0B016841F400710160202004F81E0957
:100E8000E67766770020C7E7FFE70220C4E70000A7
:100E9000020010000000FFFF10B586B00021009195
:100EA00001910291039100680F4988421AD10F4CB9
:100EB000A06940F00800A061A069694600F0080040
:100EC0000490C02000901220019003200390084855
:100ED000FFF770FCE06940F40010E061E06900F4A5
:100EE0000010049006B010BD0054004000100240F5
:100EF000000C01400248816802781144816070470B
:100F000008000020074810B5016841F01001016099
:100F1000032000F067F8002000F006F800F024F845
:100F2000002010BD0020024070B50D4D04464FF466
:100F30007A712878B1FBF0F00A490968B1FBF0F04A
:100F400000F072F848B9102C07D200222146501E3A
:100F500000F028F800206C6070BD012070BD00001A
:100F600008000020140000200C4808B5816941F0F9
:100F700001018161816901F001010091C16941F0C4
:100F80008051C161C06900F0805000900448416800
:100F900021F0E06141F00071416008BD00100240A5
:100FA00000000140F0B40E4B1B680C46C3F3022353
:100FB000C3F10705042D00D90425191D072901D205
:100FC000002300E0DB1E012606FA05F1491E214040
:100FD00099409E40761E16403143F0BC00F06EBB37
:100FE0000CED00E0064900F0070208684FF6FF0329
:100FF000184040EA0220034A10430860704700008E
:101000000CED00E00000FA05044805490068496855
:10101000044AC1F30221515CC8407047140000200B
:1010200000100240E425000810B5401EB0F1807F9A
:1010300001D3012010BD4FF0E02460610F21601743
:1010400000F03CFB0020A06107202061002010BDC3
:10105000FEE701684A69D24352050FD46FF48062FB
:101060004A61002140F8301F2022427381730269D7
:1010700042F00402026101730120704700207047B2
:101080002DE9F84F0446C06A1E4693460D46216876
:101090000A6842F480620A60082807D0012805D057
:1010A00010F5803F02D0206B112804D12068016820
:1010B00041F4807101604FF001195B4600224946FE
:1010C0002046009600F0C6F84FF4007840B1206842
:1010D0000068C00501D5C4F840800320BDE8F88F42
:1010E0002069DFF884A0B0F5804F0FD0062021687A
:1010F00000EAD51747F0F000086133465A460AF176
:101100000601204600F0DAF858BB03E0E8B240F0F0
:1011100001001CE02168E8B2086133465A46514696
:10112000204600F0CBF8E0B9206841698169009160
:10113000016841F4807101605B4600224946204607
:10114000009600F087F80028C1D147F0F10021682F
:10115000086133465A465146204600F0AFF8002851
:10116000BCD00120BAE7000002000100F8B5044637
:10117000C06A1E460D461746082807D0012805D02C
:1011800010F5803F02D0206B122804D1206801683E
:1011900041F480710160134600224FF00111204696
:1011A000009600F057F840B120680068C00502D5ED
:1011B0004FF4007020640320F8BD2069B0F5804F23
:1011C0000ED00620216800EAD51040F0F00008613A
:1011D00033463A460B49204600F070F878B902E0F1
:1011E00005F0FE0000E0E8B22168086105493346D9
:1011F0003A46891F204600F061F80028DCD0012023
:10120000F8BD00000800010070B516460D46044602
:101210000DE02046FFF71DFF08B1012070BD681CDE
:1012200005D0FFF7B7FB801BA84207D835B120686F
:101230004069C0434007ECD4002070BD002044F852
:10124000300F20216173A073216941F020012161D9
:101250002073E2E72DE9F0471E4690460D4604460E
:10126000C1F30747DDF8209008E0701C06D0FFF7B7
:1012700091FBA0EB0900B0420FD876B12068012F96
:1012800018D0806925EA00000004000C14D0002169
:101290004145EAD00020BDE8F087002044F8300F37
:1012A00020216173A073216941F020012161207325
:1012B0000120F0E74069E5E70121E9E72DE9F04782
:1012C0009A4691460E46044600254FF02008C1F389
:1012D000074725E020684069C043400514D42068D2
:1012E000016841F40071016021686FF48060486119
:1012F000256384F83D8084F83E50206C40F0040063
:10130000206484F83C501FE0B9F1FF3F08D0FFF79C
:1013100041FBA0EB0A0149450CD8B9F1000F09D0F7
:101320002068012F13D0806926EA00000004000C19
:101330000BD0CFE744F8305F84F80D80A5732069A7
:1013400040F02000206125730120BDE8F08740694E
:10135000EAE72DE9F041002590460E460446202795
:1013600017E04069C043C0060CD454F8301B6FF03E
:101370001000486144F810596777A577206A206209
:10138000257717E0FFF706FBA0EB0800B04208D86E
:101390003EB120684169C9434906E2D40020BDE856
:1013A000F08144F8305F6773A573206940F0200036
:1013B000206125730120F2E770B516460D460446FC
:1013C0000DE02046FFF745FE08B1012070BD681C06
:1013D00005D0FFF7DFFA801BA84207D835B1206897
:1013E0004069C0430006ECD4002070BD002044F8E2
:1013F000300F20216173A073216941F02001216128
:101400002073E2E7044908B58A6902438A61896961
:101410000140009108BD000000100240F0B50A68CC
:10142000C2F30F2595FAA5F2B2FA82F369E0012220
:101430009A402A4264D0082B03D240F201129A400B
:1014400006E0A3F108024FF00114944044F08062DA
:101450004C68082C0BD10C69C668170A97FAA7F7D5
:10146000B7FA87F726EA1226BC402643C66092FAEE
:10147000A2F700EB1264B7FA87F74FEA870C0F2741
:10148000266807FA0CF7BE4392FAA2F7D1F804E0F7
:10149000B7FA87F7BF000EFA07FE46EA0E06266087
:1014A0004F68012F01D0092F2AD192FAA2F7B7FA7B
:1014B00087F74FEA870C032707FA0CF7BE4392FA27
:1014C000A2F7B7FA87F7D1F808E0BF000EFA07FED7
:1014D00092FAA2FC46EA0E06BCFA8CFC4FEA8C0E8D
:1014E0004FF0040C26600CFA0EFC92FAA2F2B2FA4B
:1014F00082F2CF68920026EA0C0697403E432660AF
:101500005B1C35FA03F292D10020F0BD10B50368E0
:101510000122C3F380132BBBD1E900231A43D1E985
:10152000023423431A430B691A434B691A438B69EC
:101530001A43CB691A430B6A1A4303684FF6BF7408
:10154000A3431A43026042684B6922F0040242EA54
:10155000134242600A6AB2F5005F02D1898C89B2F7
:1015600001610022104610BD01490860704700006B
:101570001400002008B54FF0E0210A690092421CD7
:1015800000D0401C0A69D20300D5401E0028F9D1C2
:1015900008BD000010B590B028216846FEF7D9FDBF
:1015A00014210AA8FEF7D5FD4FF48050FFF72AFF5B
:1015B0000420FFF727FF4AF2A0000A9009200B90B1
:1015C00003200024CDE90C040AA90C48FFF726FFEC
:1015D0004FF48270CDE900404FF40070CDE9044033
:1015E00003940A20CDE908400294069469460794C2
:1015F0000348FFF78BFF10B010BD0000000801404A
:1016000000300140FEE7FEE770477047FFF772BC0D
:101610001C4810B5016821F007010160016811F054
:10162000070FFBD11848016821F0F80141F0800153
:101630000160016841F0010101600168C1F34001EE
:101640000029FAD0416821F0F0014160416821F49D
:10165000E0614160416821F460514160416821F0DE
:1016600003014160416811F00C0FFBD10748FFF7FF
:101670007BFF0020FFF758FC002801D072B6FEE780
:1016800010BD0000002002400010024000127A004D
:101690007047FEE70FB4084B10B504A902AA0398DF
:1016A00000F0EEF8044602A9002000F080FC20467D
:1016B00010BC5DF814FB0000AF1F00080907090EFD
:1016C000002804DB00F1E02080F80014704700F0EF
:1016D0000F0000F1E02080F8141D704702E008C8F8
:1016E000121F08C1002AFAD170477047002001E09C
:1016F00001C1121F002AFBD1704700002DE9FF5FD6
:1017000082B00021DDE90430020DDDF840B0034372
:1017100018D044F61050A2F2FF324243151411982B
:1017200001281FD0A5EB0B00401C5FEA000A4FF018
:1017300000064E4FDFF83891B046504615D5CAF135
:10174000000413E0119801244AA3012801D16FEA93
:101750000B010298119AC0E90031C0E9024206B0BB
:10176000BDE8F09FCBF10000DFE704460021404ACE
:10177000491842EB0450CDE9001012E0E00707D011
:1017800032463B4640464946FEF770FE8046894653
:1017900032463B4610461946FEF768FE06460F469F
:1017A0006410002CEAD1DDE90401DDE90023BAF17F
:1017B000000F06DAFEF75AFE42464B46FEF756FE8B
:1017C00005E0FEF7C5FE42464B46FEF7C1FE044665
:1017D0000E460022284BFEF743FF03D84FF0FF30A0
:1017E000014607E00022254B20463146FEF797FDD3
:1017F000FEF71DFF102409E0002C0ADB0A2200235B
:10180000FEF725FD039B30321A55641E50EA010293
:10181000F2D1641C039AC4F111031444119A012AF1
:1018200003D0012208430DD10AE0084304D0002070
:101830004FF0110B119072E7A3EB0B056D1E0DE03D
:101840005B4504DD4FF0000205F1010504E003DA19
:101850004FF00002A5F10105002AECD00298119981
:10186000C0E90231C0E9004579E7000000001440FA
:101870000000F03F300000000000F0430000E03FB7
:101880002DE9FF4F95B09B468946064600250FE29D
:10189000252877D100242746F84A0121059400E045
:1018A000044316F8013F203B01FA03F01042F7D140
:1018B00030782A2811D06FF02F033078A0F1300251
:1018C000092A16D8059A44F0020402EB820203EBBF
:1018D00042021044761C0590EFE759F8042B05925C
:1018E000002A03DA504244F40054059044F0020404
:1018F000761C30782E2816D116F8010F44F0040417
:101900002A280DD06FF02F023078A0F13003092B78
:1019100009D807EB870302EB4303C718761CF3E7EC
:1019200059F8047B761C30786C280FD006DC4C28E4
:1019300017D068280DD06A2814D104E0742810D07C
:101940007A280FD10DE044F400140AE044F4801426
:1019500001E044F440147278824202D104F580140C
:10196000761C761C307866280BD013DC582877D08C
:1019700009DC002875D04528F6D04628F4D0472841
:101980001AD19DE118E0632835D0642879D0652804
:1019900012D195E1702873D008DC6728F1D069284E
:1019A0006FD06E280DD06F2806D1B5E073282CD0EB
:1019B000752875D0782874D05A46179990476D1CB1
:1019C00075E1C4F30250022809D003280DD0D9F8DC
:1019D000001004280DD00D6009F1040967E1D9F861
:1019E0000010EA17C1E90052F6E7D9F800100D809F
:1019F000F2E70D70F0E719F8041B8DF800100020D5
:101A00008DF80100EA46012003E059F804AB4FF0DD
:101A1000FF3061074FF0000102D40DE008F1010131
:101A20008846B9420FDA8045F8DB1AF80810002919
:101A3000F4D108E008F1010188468142FADB1AF886
:101A400008100029F6D105985B46A0EB080721464F
:101A50003846179A00F094FA284400EB080507E08E
:101A60004DE029E10DE01AF8010B5A46179990470D
:101A7000B8F10108F7D25B4621463846179A13E1C0
:101A800042E00A220092C4F302524FF0000A022AF6
:101A900008D059F804CB032A4FEAEC710AD00DE0C4
:101AA00029E02AE009F1070121F00702F2E802C16A
:101AB000914609E00FFA8CFC4FEAEC71042A03D13D
:101AC0004FFA8CFC4FEAEC71002907DA0A46002134
:101AD000DCF1000C61EB02012D2202E0220504D5AD
:101AE0002B228DF80420012203E0E20701D02022FE
:101AF000F7E7904659E00A2102E010220DE010219C
:101B00004FF0000A00910BE010224FF0000A44F061
:101B100004040827009203E008224FF0000A009214
:101B2000C4F30252022A05D059F804CB0021032A3B
:101B300008D009E009F1070121F00702F2E802C12B
:101B4000914605E01FFA8CFC042A01D10CF0FF0C31
:101B50004FF00008220728D5702806D0009B83F09C
:101B6000100353EA0A0305D00EE040228DF804204A
:101B7000012208E05CEA010206D030228DF8042040
:101B80008DF8050002229046009B83F0080353EA7B
:101B90000A030AD15CEA010201D1620705D53022AD
:101BA0008DF804204FF001087F1E582804D034A07F
:101BB00003900EA802900DE036A0F9E75346604668
:101BC000009AFEF744FB84460398825C0298401E0C
:101BD000029002705CEA0100F0D1029806A9081A8E
:101BE00000F1200A600702D524F4803400E00127C8
:101BF000574502DDA7EB0A0000E0002000EB0A01D8
:101C0000009005984144401A0590E00306D45B46D5
:101C10002146179A059800F0B3F90544002706E01D
:101C200001A85A46C05D179990476D1C7F1C474517
:101C3000F6DBE0030CD55B462146179A059800F0C9
:101C40009FF9054404E030205A46179990476D1CCF
:101C50000099481E00900029F5DC08E002980299DE
:101C60005A460078491C0291179990476D1CBAF1A9
:101C70000001AAF1010AF1DC65E100000928010078
:101C800030313233343536373839616263646566F2
:101C900000000000303132333435363738394142B4
:101CA000434445460000000000F058F90544761C06
:101CB000307800287FF4ECAD19B02846BDE8F08FED
:101CC000620700D4062709F1070222F0070CFCE89E
:101CD0000223E14603F000485FEA080C02D00FF24D
:101CE000702C0DE05FEA045C02D50FF2682C07E06F
:101CF0005FEAC47C02D00FF2602C01E0AFF2700CFE
:101D00004FF0FF3823F00043CDF850C065280CD0C9
:101D100006DC452809D046281DD047283DD13DE0A6
:101D2000662818D067287ED138E00021112F01DB0A
:101D3000112000E0781CCDE9000106A90EA8FFF7EC
:101D4000DDFCDDE90F010E9A03910021009207F1FD
:101D5000010A04914DE04FF000400097CDE90110D9
:101D600006A90EA8FFF7CAFCDDE90F0203920E9B3D
:101D700011990022DDF80CA00093049211B9791C8E
:101D800000EB010AB7EB0A0004D4C0F1FF3007F101
:101D9000010A0490AAEB0700019044E0012F00DA49
:101DA00001270021112F01DD112000E03846CDE987
:101DB000000106A90EA8FFF7A1FCDDE90F010E9AAC
:101DC0000391002104910092BA4621070CD4039993
:101DD000514500DA8A46BAF1010F05DD009AAAF1F1
:101DE0000101515C302908D0B84202DA10F1040F29
:101DF00006DA0121CDE9011015E0AAF10101E9E7B8
:101E0000002805DC049901440491AAEB000102E0DA
:101E1000411C514500DD8A460499401A401C01903E
:101E20004FF000400290200704D40198504501DB98
:101E3000CDF8048000208DF84F0002980DF14F0777
:101E4000B0F1004F25D02B200E9002984FF00208E1
:101E500000280CDA404202902D200E9007E00A2163
:101E60000298FEF7DEF93031029007F8011DB8F153
:101E70000001A8F10108F2DC02980028EFD1791ED8
:101E80000E980870307800F0200040F0450007F808
:101E9000020D12A8C01B00F107081498007800B1C9
:101EA000012000EB0A01019801EBE0710598414423
:101EB000401A401E0590E00306D45B462146179A5F
:101EC000059800F05DF805441498007818B15A465A
:101ED000179990476D1CE00324D55B462146179A5D
:101EE000059800F04DF805441CE00498002807DB35
:101EF000DDE90301884203DD0098405C179901E0A9
:101F0000179930205A469047049805F10105401C66
:101F100004900198401E019004D12E205A46179932
:101F200090476D1CBAF10001AAF1010ADDDC05E061
:101F300017F8010B5A46179990476D1CB8F100012C
:101F4000A8F10108F4DC5B462146179A0598ABE638
:101F50002D0000002B000000200000002DE9F041C2
:101F6000044600251E461746880404D405E0394679
:101F70002020B0476D1C641EF9D52846BDE8F081CD
:101F80002DE9F041044600251E469046C80301D5C0
:101F9000302700E02027880404D505E04146384674
:101FA000B0476D1C641EF9D52846BDE8F0810A686B
:101FB000531C0B601070704708483821AC22017028
:101FC000BE214170082181700021C170027133224D
:101FD000427181717121C1717047000000000020C1
:101FE0007CB5134D002042F210748DF8040000946B
:101FF000287801234100EA1D0E48FEF7B7FE4FF096
:10200000FF3650B900942878012101EB40010123EB
:1020100001AA0848FEF788FD08B130467CBD9DF84E
:102020000400000701D501207CBD00207CBD00001C
:10203000000000201800002010B50023002400201C
:1020400000F0B8FA641C542CF9DB5B1C062BF5DBA2
:1020500010BD10B5FFF7B0FF6420FFF78BFAFFF754
:10206000BFFF4FF0FF3418B1401C00D1204610BD17
:1020700000F046FA401CF9D00A20FFF77BFA10BDA9
:1020800010B500F069F9002000F07CFA104CD4E99A
:102090000210C1F30F2101610A20FFF76BFA0D480E
:1020A000016841F040010160D4E90210C1F30F2141
:1020B0004161212000F07EFAFF2000F07BFA202011
:1020C00000F078FABDE810400C2000F073BA000070
:1020D0006C00002000300140F0B597B0FEF712FF11
:1020E000FFF796FA14210FA8FEF733F80420FFF744
:1020F00089F90820FFF786F92F482E4940F6024259
:1021000042610F910121109102210024CDE91114A7
:102110000FA9FFF783F92A48284901602949C0E936
:1021200001144FF48041C0E9034144618461C461FA
:102130000462FEF735FC08B172B6FEE7FFF72AFA33
:10214000214890E87E001E48543066C0C0E9003443
:10215000FFF796FFFFF77DFF4FF0FF36401C26D0BC
:10216000342102A8FDF7F5FF4FF47A6715A914A8EA
:1021700000F05AF8401C1AD01598FEF73FF80446B4
:102180000D461498FEF73AF802460B460FA102A836
:10219000CDE90045FFF77EFA02A8FDF7E5FF01460D
:1021A00002A800F023F83846FFF7E4F9DEE717B09D
:1021B0003046F0BD0E020C04000C014000540040FB
:1021C00018000020A0860100CC25000868756D204D
:1021D00069733A252E316620616E642074656D70D6
:1021E0002069733A252E31660000000070B506465E
:1021F0000D468024012000F0C5F9FFF71DFF0020E7
:1022000000F0C0F9204600F0D5F9402000F0D2F9E6
:10221000012000F0B7F92946304600F0A7F9BDE8E3
:102220007040002000F0AEB9FEB5054600200C4617
:102230000190029000F084F94FF0FF36401C15D059
:102240005020FFF797F900F04BF8411C0ED068B111
:1022500042F2107000901E4801210723007801AA65
:1022600001EB40011B48FEF75FFC08B13046FEBDA4
:102270009DF805009DF8061041EA00219DF8070031
:1022800040EA012000094FF47A714843000DFDF740
:10229000B0FF114E3146FDF76EFF28609DF8070034
:1022A0009DF8081041EA00219DF8090040EA01204C
:1022B000C0F313004FF4FA614843084901EB105092
:1022C000FDF797FF3146FDF756FF20600020FEBD69
:1022D0000000002018000020000020410CFEFFFF3D
:1022E0002DE9FC411A4C002742F210768DF804705B
:1022F00000962078012505EB40012B46E21D15488C
:10230000FEF734FD4FF0FF38A8B90096207801237E
:1023100005EB400101AA0F48FEF706FC58B90FE093
:1023200000962078012305EB400101AA09487F1C93
:10233000FEF7FAFB10B14046BDE8FC81642F05D0E2
:102340009DF804000006EBD40120F5E70020F3E738
:10235000000000201800002010B50B4CD4E9041038
:10236000C1F30F2101610A20FFF704F9D4E9040148
:10237000C0F30F2048610A20FFF7FCF8D4E90410ED
:10238000C1F30F21016110BD6C0000202DE9F04F59
:10239000454B444FA0F12001424A444C444DDE1DC0
:1023A0001A3FDFF810C1DFF81091DFF810A1DFF855
:1023B00010B1DFF810E14448562970D2DFE801F08F
:1023C0004F6F6F6F6F6F6F6F6F6F6F6F6F6F686F44
:1023D00065515456582C5A5D5F626B6F6F6F6F6F0B
:1023E0006F2B333537393B3D3F412E2E2E43452E43
:1023F000474F4F2C4A4C6F6F6F6F6F6F6F6F6F6FE0
:102400006F2B333537393B3D3F416F6F6F43456F1E
:10241000476F6F2C4A4C104600F062F8BDE8F04F51
:10242000002000F0C7B81846F6E72046F4E7284633
:10243000F2E73046F0E73846EEE76046ECE748461C
:10244000EAE75046E8E75846E6E77046E4E715480D
:102450001838E1E71D48DFE71648FA38DCE70020C6
:10246000DAE71648401ED7E71948D5E71948D3E7F9
:102470001948D1E70C480F30CEE71848CCE70A4896
:102480001130C9E71048801CC6E70A48801DC3E721
:102490004FF48010C0E74FF48850BDE7FFE76FF0BE
:1024A0007F40B9E71F051F000E151F00110A0E001F
:1024B000040A1F0019111F001F041F00111F110023
:1024C0001F061F001F0C1F001D151700011F010014
:1024D00017151D001F1515001F0407001F0101001F
:1024E00000B50346C0F3074000F064F8C3F30720CB
:1024F00000F060F8D8B25DF804EB00F05BB80000C3
:10250000F8B50D4E42F2107400943078012341006A
:10251000721C0A48FEF72AFC4FF0FF3548B90094B8
:10252000307802234100B21C0448FEF71FFC00284B
:1025300000D02846F8BD0000000000201800002050
:1025400008B5084A42F21070009012F8040B0323F9
:1025500041000548FEF70AFC002801D04FF0FF308B
:1025600008BD0000000000201800002070B50D46D6
:102570000646002403E0305DFFF708FF641CAC4210
:10258000F9DB70BD10B504460A20FEF7F3FF0849D9
:102590003CB1012C04D148680968C1F30F210161E5
:1025A00010BD48680968C1F30F21416110BD0000EA
:1025B0006C00002004498A68C2F34002002AFAD065
:1025C0000873886870470000003001400800080464
:1025D000000C014004000404000C01400202000051
:1025E000000C014000000000010203040C2600085A
:1025F0000000002018000000DC1600082426000857
:102600001800002078040000EC160008000000000C
:1026100000000000010000001000000000000000A9
:042620000024F4009E
:04000005080000ED02
:00000001FF
